:100FAC00120A4A120E1920B305120D2A80F8120CDF
:030FBC000C80F3B3
:03002300020E7C4E
:090E7C00C0E0C0D075D000C00038
:100E8500753E00744D2553F8A699C2980553E55350
:090E9500B40206753E017553001C
:070E9E00D000D0D0D0E032FB
:100F2800D3EF9400EE940040147D707C00ED1D70AA
:0D0F3800011CED4C70F7EF1F70E61E80E30A
:010F45002289
:100DE400C2B7900050E5821582AE83700215834E1F
:100DF40070F3D2B7F583F58230B717A3AF82AE8311
:100E0400E4FCFD7B507AC3F9F8C312042050E97F57
:040E140000227F0138
:010E180022B7
:0C0CA600120DE47F017E00120F287FCCAD
:100CB200E4FBFAC2B70558E55870020557EF1392E4
:100CC200B7755700755806E5581558AC5770021598
:100CD200574C70F3D2B7EFC313FF0BBB00010AEB03
:050CE20064084A70CE19
:010CE70022EA
:100D6C007D087C00C2B70FBF0000D2B70FBF0000D8
:100D7C000FBF0000A2B7E433C43333335480FBE914
:100D8C00C3134BF97E007F04EF1FAA0670011E4AA5
:0D0D9C0070F6ED1D70011CED4C70C9AF012B
:010DA9002227
:0F0FE400120CA67F44120CB27F647E00020F280D
:080FFD00120CA67FBE020CB22B
:100F5C00120FE4120FFD120D6C8F56120D6CEFFE7A
:030F6C00E556FF48
:010F6F00225F
:100EEA008F5A120FD2C2A6C2A5855A807F0A7E00E7
:0F0EFA00120ECAD2A77F0A7E00120ECAC2A7220A
:100F09008F5B120FD2D2A6C2A5855B807F0A7E00B5
:0F0F1900120ECAD2A77F0A7E00120ECAC2A722EA
:100F70007F38120EEA7F0C120EEA7F06120EEA7F0D
:040F800001020EEA72
:100FD2007580FFC2A6D2A5D2A7AF80C2A7EF20E735
:010FE200F618
:010FE30022EB
:100EA5008B588A59895AAB58AA59A95A12035C60BA
:100EB50013055AE55A7002055914F912035CFF121D
:050EC5000F0980E2228C
:100F84008B558A5689577F80120EEAAB55AA56A90B
:040F940057020EA54D
:100F98008B558A5689577FC0120EEAAB55AA56A9B7
:040FA80057020EA539
:100CE80070617373776F72643A006368616E6765E9
:100CF8003A0077656C636F6D65210077726F6E6778
:100D08000070617373776F72643A2020202020206E
:100D1800200031323350343536513738395220308B
:020D2800235353
:100C5C0002242000073430313234353600072C2082
:100C6C00202020202000012A00012800013300014F
:100C7C002700012601013B00012B00012900013C4A
:010C8C000067
:1005D100E4F55575900FE590640F70030207537FA2
:1005E1000A7E00120ECAE590640F700302075305DC
:1005F100287590F0AF90EF2450601124E060122430
:10060100F0601324707012E4F53D800D753D01809A
:1006110008753D028003753D0375900FAF90EF247F
:10062100F5601524FE601C1460252407702BE53D40
:1006310025E025E0F53D8021E53D25E025E004F5B7
:100641003D8016E53D25E025E02402F53D800AE5E3
:100651003D25E025E02403F53DC3E5556480948AFA
:100661005011E59064F0600B7F0A7E00120ECA05FE
:100671005580E6E529704CE53D64036046E53D643F
:10068100076040E53D640B603AE53D640F6034E589
:100691003BC39406500CE53D2430FF742C253BF8F8
:1006A100A607E5282488FF120EEAAF3DEF3395E057
:1006B100FE741A2FF582740D3EF583E493FF120F39
:1006C10009053BE52964017042E53CC39406501AD3
:1006D100E53D2430FF742C253CF8A607742C253CFD
:1006E100F8E6FF7434253CF8A607E53C24C7FF1261
:1006F1000EEAAF3DEF3395E0FE741A2FF582740DCB
:100701003EF583E493FF120F09053CE53DB4030375
:10071100752A01E53DB40703752B01E53DB40B03D3
:10072100753301E53DB40F03752701E53DB40C03B5
:10073100752901E53D64036017E53D64076011E536
:100741003D640B600BE53D640F6005E53DB40C02B3
:02075100152869
:010753002283
:100A4A00120F701205D1E52AB401F87BFF7A0C79EE
:100A5A00E8120F841205D1E52BB401127BFF7A0D3F
:100A6A007909120F84E4F528F53BF527F52BE533D0
:100A7A00B40114E5282488FF120EEAAF24120F09E4
:100A8A00153B1528E4F533E529B401157BFF7A0CEB
:100A9A0079F2120F98E53CB40607E4F53BF528F520
:100AAA0029E53BB40706E5276401600CE53BC394DE
:100ABA0006500EE527B401097BFF7A0D7903120F60
:100ACA0098E53B64066003020A50782C7C00FDFB23
:100ADA007A0079341205B4EF70057526018003E4B3
:100AEA00F526E526B40118E527B401137BFF7A0C35
:100AFA0079FA120F987FF47E01120ECA020F70E57E
:100B0A00266003020A50E52764016003020A507B4B
:100B1A00FF7A0D7903120F98E4F528F53BF52702C1
:020B2A000A506F
:0A0FF300303330332F303330343AFE
:100DAA00AB52AA51A950A84FAF4CAE4BAD4AAC4971
:100DBA001200297B957ABF79D6783312022460050E
:100DCA004003C29022D290D2957F017E00120ECAB1
:0A0DDA00C2957F017E00120ECA22AE
:100E4D007F8B120EEAE4F556744D2556F8E6FF1227
:100E5D000F090556E556C3940240ED7F8D120EEA3B
:0F0E6D007FDF120F097F8E120EEA7F43020F09FB
:10075400C3E53F94005011E540F4FFE53FF4FEEF9C
:100764002401FDE43EFC8004AC3FAD40E41202A24F
:10077400E4FBFA7980783D12011E8F4C8E4B8D4A32
:100784008C49AF4CAE4BAD4AAC491202DBAB07AA65
:10079400067C007D0A1203DC8E418F427C007D0AB8
:1007A400AF03AE021203DC8C438D44AE41AF427CF6
:1007B400007D0A120375E5442FFDE5433EFCE41277
:1007C40002A2A804A905AA06AB07AF4CAE4BAD4ADA
:1007D400AC491200298F598E588D578C56E4FFFE70
:1007E4007DC87C42AB59AA58A957A85612011E12BB
:1007F40002DBAB07AA067C007D0A1203878E458FB5
:1008040046AE02AF037C007D0A1203878C478D48F5
:100814007FC0120EEAE5422430FF120F097FC11295
:100824000EEAE5442430FF120F097FC2120EEA7F5C
:100834002E120F097FC3120EEAE5462430FF120F71
:10084400097FC4120EEAE5482430FF120F097FC560
:10085400120EEA7FDF120F097FC6120EEA7F4312DF
:0A0864000F09AF4CAE4BAD4AAC4992
:01086E002267
:100BB800C2ACE4FFFEEF25E02441F808E62430F556
:100BC800993099FDC2990FBF00010EEF64024E7073
:100BD800E475992E3099FDC2997E007F02EF25E0D9
:100BE8002441F808E62430F5993099FDC2990FBFE1
:100BF80000010EEF64044E70E47599203099FDC22F
:030C080099D2ACD2
:010C0B0022C6
:100F4600759850E4F587758920758BFA758DFAD2F8
:060F56008ED2AFD2AC22E6
:100E1900120F70120F467F80120EEAE4F556F5574D
:100E290074F32557F582740F3556F583E493FF1251
:100E39000F090557E55770020556C3940AE55694FC
:030E49000040DD89
:010E4C002283
:100C0C00120F5C8E3F8F401207548F4C8E4B8D4AC7
:100C1C008C49120BB8AF4D7E007C007D0A12037517
:100C2C00EF254EFFEC3ECF24F0FDEF34FDFC12021D
:100C3C00A28F528E518D508C4FE53E6012120E4D8C
:0F0C4C00E4F555120DAA0555E555C3943240F451
:010C5B002276
:100C8D000C185468652074696D6520697300080C33
:080C9D0030303A30303A3030BB
:100FBF00758901D2AFD2A9D28C758CFC758A18E4D1
:030FCF00F5802288
:0B001600D2AFD2A8D288D2AAC28A22A0
:100D2A00120F70120FBF1200167F80120EEA7B009C
:100D3A007A007918120EA530AF20E4F555E555C3AF
:100D4A00940850F3E55524C4FF120EEA740C255595
:100D5A00F8E6FF120F09055580E3120F70D2B302AD
:020D6A000E1960
:0300030002086F81
:10086F00C0E0C0F0C083C082C0D075D000C000C04F
:10087F0001C002C003C004C005C006C007308C030E
:10088F0002093F20B04E7F327E00120ECA20B044C4
:10089F000515E51570020514641845147004F51458
:1008AF00F5157FC4120EEAAE14AF157C007D0A1247
:1008BF000387EF2430F50CFF120F097FC5120EEAE4
:1008CF00AE14AF157C007D0A120387ED2430F50DB1
:1008DF00FF120F0920B24E7F327E00120ECA20B2D5
:1008EF00440517E51770020516643C45167004F5AC
:1008FF0016F5177FC7120EEAAE16AF177C007D0AEA
:10090F00120387EF2430F50FFF120F097FC8120E65
:10091F00EAAE16AF177C007D0A120387ED2430F57F
:10092F0010FF120F0930B30302088CD28C02088C0F
:10093F0020B202C2AFD007D006D005D004D003D06A
:10094F0002D001D000D0D0D082D083D0F0D0E0320E
:03001300021005D3
:0610050020B302D28C3280
:03000B0002095F88
:10095F00C0E0C0F0C0D075D000C000C004C005C05A
:03096F0006C007B8
:10097200758CFC758A18D2AC20B108C28CD2B2C276
:10098200B2D2B20509E5097002050864E87004E50F
:100992000864037042F508F509050BE50B700205C2
:1009A2000A643C450A7030F50AF50B0517E5177025
:1009B200020516643C4516701EF516F5170515E579
:1009C200157002051464184514700CF50AF50BF540
:1009D20016F517F514F515AE14AF157C007D0A1245
:1009E2000387EF2430F50CAE14AF157C007D0A129C
:1009F2000387ED2430F50DAE16AF177C007D0A1289
:100A02000387EF2430F50FAE16AF177C007D0A1274
:100A12000387ED2430F510AE0AAF0B7C007D0A127D
:100A22000387EF2430F512AE0AAF0B7C007D0A1269
:070A32000387ED2430F513EA
:100A3900D007D006D005D004D000D0D0D0F0D0E077
:010A4900327A
:100ECA00E4FDFCC3ED9FEC9E5015E4FBFA0BBB005E
:0F0EDA00010AEB64784A70F50DBD00010C80E44D
:010EE90022E6
:10002600020347E86480F8E933E83360110460F0BE
:10003600ED33EC337009E8FCE9FDEAFEEBFF220440
:1000460060DED3EB9FEA9EE99DE8C2E78CF0C2F73B
:1000560095F0400CE8CCF8E9CDF9EACEFAEBCFFB07
:1000660012031285D0F05804700320D5B3E804704B
:10007600075002B2D502035192D5EC0460F7E4CCE6
:10008600C0E0C398F8603B94186008400DD0E0FBD0
:10009600020329E4FBFAC9FC8028E830E406E4C937
:1000A600FBE4CAFCE830E305E4C9CACBFCE8540724
:1000B6006010F8C3E913F9EA13FAEB13FBEC13FC2F
:1000C600D8F130F52FC3E49CFCEF9BFFEE9AFEEDD2
:1000D60099FDD0E0FBEF4E4D4C701222DB0302037C
:1000E6004EEC2CFCEF33FFEE33FEED33FDED30E747
:1000F600EB020329EF2BFFEE3AFEED39FDD0E0FBD4
:1001060050130BBB0003020351ED13FDEE13FEEF7C
:0801160013FFEC13FC020329A6
:10011E00EC4D6011E8497017ED33EC3304600DE4DB
:10012E00FCFFFEFD22E933E8330470F802034712A8
:10013E00031258046009E4CC2481500628500902A9
:10014E00035128400302034EC0E0EB4A7044B980CD
:10015E0006D0E0FB02033DEF4E701CBD8008EBFFA6
:10016E00EAFEE9FD80EBE98DF0A4FEE5F002020760
:10017E00E9CDF9EAFEEBFFEF89F0A4FCE5F0CE89BC
:10018E00F0A42EFFE435F0CD89F0A42DFEE435F079
:10019E008067EF4E7005BD80D780C3EF8BF0A4ACA7
:1001AE00F0EE8BF0A42CFCE435F0F8EF8AF0A42CE2
:1001BE00E5F038FCE433CB8DF0A42CFCE5F03BF8F5
:1001CE00EE8AF0A42CFCE5F038F8E433CF89F0A4E5
:1001DE002CFCE5F038CF3400CE89F0A42FFFE5F0EB
:1001EE003EFEE433C98DF0A42EFEE5F039CD8AF043
:1001FE00A42FFFE5F03EFEE43DFD33D0E0FB5007BB
:10020E000BBB000F020351EC2CFCEF33FFEE33FE61
:06021E00ED33FD0203298F
:1002240074F8CC6480CCC86480C8F58204604FC381
:10023400EB9FF5F0EA9E42F0E99D42F0E89C45F020
:10024400603C501DE5825FFFE582D313CB5BCBF4AA
:100254002B5582FB50280ABA002409B900200880D3
:100264001DE5825BFBE582D313CF5FCFF4C3132F6D
:100274005582FF50090EBE00050DBD00010CC3EBF5
:100284009FF5F0EA9E42F0E99D42F0E89C45F0605B
:0902940007CC4820E701B3EC227D
:10029D0075F020800E75F010800575F0087D007EDC
:1002AD00007F003392D530D503120412EC33401089
:1002BD00EF33FFEE33FEED33FDEC33FCD5F0ED22E5
:0E02CD00E5F0247EA2D513CC92E7CDCEFF2221
:1002DB00EDD2E7CD33EC3392D524814006E4FFFE1B
:1002EB00FDFC22FCE4CFCECDCC24E0501174FF807A
:1002FB00EDC3CC13CCCD13CDCE13CECF13CF047017
:07030B00F030D5DE02041200
:10031200E9D2E7C933E833F892D5EDD2E7CD33EC31
:0703220033FC5002B2D522AA
:10032900EC30E7100FBF000C0EBE00080DBD000435
:100339000BEB6014A2D5EB13FCED92E7FD2274FFE1
:10034900FCFDFEFF22E480F8A2D574FF13FC7D803A
:03035900E480EF4E
:03000000020B2CC4
:0C0B2C00787FE4F6D8FD75815B020B7346
:10035C00BB010689828A83E0225002E722BBFE029F
:09036C00E32289828A83E49322D2
:10037500EF8DF0A4A8F0CF8CF0A428CE8DF0A42E9C
:02038500FE2256
:10038700BC000BBE0029EF8DF084FFADF022E4CC5A
:10039700F875F008EF2FFFEE33FEEC33FCEE9DEC23
:1003A700984005FCEE9DFE0FD5F0E9E4CEFD22ED69
:1003B700F8F5F0EE8420D21CFEADF075F008EF2FB3
:1003C700FFED33FD4007985006D5F0F222C398FDA4
:0503D7000FD5F0EA2241
:1003DC00C2D5EC30E709B2D5E4C39DFDE49CFCEE3C
:1003EC0030E715B2D5E4C39FFFE49EFE120387C32A
:1003FC00E49DFDE49CFC800312038730D507C3E425
:06040C009FFFE49EFE22AA
:0E041200C3E49FFFE49EFEE49DFDE49CFC22FB
:10042000EB9FF5F0EA9E42F0E99D42F0EC6480C853
:0604300064809845F022F3
:10043600E3F5F009E208B5F06D606B80F3E3F5F0E3
:1004460009E608B5F060605E80F387F009E608B556
:10045600F054605280F487F009E208B5F04860462F
:1004660080F488828C8387F009E0A3B5F038603683
:1004760080F488828C8387F009E493A3B5F0276023
:100486002580F388828C83E3F5F009E0A3B5F016A6
:10049600601480F388828C83E3F5F009E493A3B5B6
:1004A600F004600280F2020561808580E7808E801C
:1004B600D2803C8015806C807E809B80B5808B804E
:1004C600A1804F8070803A02056D89828A83ECFA9A
:1004D600E493F5F0A3C8C582C8CCC583CCE493A346
:1004E600C8C582C8CCC583CCB5F070606E80E18982
:1004F600828A83E493F5F0A3E208B5F05E605C803F
:10050600F289828A83E0F5F0A3E608B5F04D604BE8
:1005160080F389828A83E0F5F0A3E208B5F03C60B7
:100526003A80F389828A83E493F5F0A3E608B5F06E
:100536002A602880F2805389828A83ECFAE493F554
:10054600F0A3C8C582C8CCC583CCE0A3C8C582C801
:10055600CCC583CCB5F004600280E27FFFB5F00223
:100566000F2240027F012289828A83ECFAE0F5F0AD
:10057600A3C8C582C8CCC583CCE0A3C8C582C8CCF5
:10058600C583CCB5F0D560D380E389828A83ECFA43
:10059600E0F5F0A3C8C582C8CCC583CCE493A3C854
:1005A600C582C8CCC583CCB5F0B160AF80E288F017
:1005B600ED2402B4040050A3F582EB2402B4040037
:0B05C600509923234582239004AF735B
:100B3800020FACE493A3F8E493A34003F68001F218
:100B480008DFF48029E493A3F85407240CC8C333BE
:100B5800C4540F4420C8834004F456800146F6DF8D
:100B6800E4800B0102040810204080900C5CE47EB5
:100B7800019360BCA3FF543F30E509541FFEE49382
:100B8800A360010ECF54C025E060A840B8E493A349
:100B9800FAE493A3F8E493A3C8C582C8CAC583CA74
:100BA800F0A3C8C582C8CAC583CADFE9DEE780BE2C
:010CA500004E
:00000001FF
